S0140000656C656B74726F6B6F7374692E73726563F0
S113000012C01FC069C01DC01CC01BC01AC019C0CB
S113001018C017C016C015C014C013C012C011C038
S113002010C00FC00EC011241FBECFEDCDBF20E005
S1130030A0E6B0E001C01D92A536B207E1F75FD09B
S1130040FEC0DECF82B3846782BB88B38A6488BB78
S11300500895833091F028F4813049F0823059F0CA
S11300600895853081F068F0863091F008958CE32E
S113007082BB8AE40BC088E701C088E382BB8AE0C4
S113008005C088E601C088E282BB82E088BB08958F
S113009088E482BB18BA0895833091F028F4813043
S11300A049F0823051F00895853081F060F0863057
S11300B081F00895C7DFC3980895C4DFC1980895F7
S11300C0C1DFC6980895BEDF94980895BBDF959864
S11300D00895B8DF929808951F920F920FB60F9269
S11300E011248F9388E082BB18BA8AE28A95F1F7CB
S11300F000C08F910F900FBE0F901F901895F89429
S11301008CE782BB84E781BB8AE488BB87BB9ADF28
S113011096988FEF98E10197F1F700C0000092DF05
S11301208FEF98E10197F1F700C000008BDF9698FC
S11301308FEF98E10197F1F700C0000083DF8FEFA4
S113014098E10197F1F700C000007CDF96988FEFEB
S113015098E10197F1F700C0000074DF85B788606B
S113016085BF8BB780688BBF85B7806585BF789462
S113017085B7806285BF889585B78F7D85BFC6E0CA
S1130180D0E016E08091630090916400839921C0CF
S11301900196909364008093630080916000909135
S11301A0610001968532910528F490936100809353
S11301B06000E8CF109261001092600080916200AC
S11301C08F5F80936200612F1AD081E0890F64DF12
S11301D0D9CFBE0120D08F5F3CDF9FEF2BE281E0BF
S11301E0915020408040E1F700C000002BDF85B72C
S11301F0806285BF889585B78F7D85BFC3CF991BE6
S113020079E004C0991F961708F0961B881F7A9509
S1130210C9F780950895AA1BBB1B51E107C0AA1F0B
S1130220BB1FA617B70710F0A61BB70B881F991F93
S11302305A95A9F780959095BC01CD010895F8943D
S1050240FFCFEA
S9030000FC
