:1000000012C01FC01FC01DC01CC01BC01AC019C019
:1000100018C017C016C015C014C013C012C011C03C
:1000200010C00FC00EC011241FBECFEDCDBF20E009
:10003000A0E6B0E001C01D92A536B207E1F70DD0F1
:10004000D1C0DECF1F920F920FB60F921124F894F9
:100050000F900FBE0F901F9018958CE782BB84E71E
:1000600081BB8AE488BB87BB8BB780688BBF85B7B1
:10007000806585BF789446E0E6E0F0E088E6B82E3B
:10008000D2E09CE3C92E2AE4D22E38E2E32E58E4D3
:10009000F52E08E7CAE018E32AE22A95F1F700C036
:1000A00085B7806285BF889585B78F7D85BF8AE2D9
:1000B0008A95F1F700C082B38B7882BB88B3857BC9
:1000C00088BB9AE29A95F1F700C080916300909105
:1000D000640012C0019690936400809363002091A5
:1000E0006000309161002F5F3F4F3093610020939B
:1000F00060002B30310500F5839BECCFBF015ED053
:100100008F5F843009F448C090F5823009F441C013
:100110008330E1F512BBC8BB2FEF8BE291E0215099
:1001200080409040E1F700C0000082B3846782BB4A
:1001300088B38A6488BBB0CF1092610010926000CF
:10014000809162008F5F80936200642F2BD09F5F4D
:10015000943029F098F0953011F0963079F482B30C
:10016000846782BB88B38A6488BB82B3AECF853094
:10017000B1F0863059F4F2BA18BACECF82B38467A0
:1001800082BB88B38A6488BB88B39FCFC2BAD8BA0F
:10019000C3CF02BBC8BBC0CFB2BAD8BBBDCFE2BAD7
:1001A000D8BBBACF991B79E004C0991F961708F005
:1001B000961B881F7A95C9F780950895AA1BBB1BCB
:1001C00051E107C0AA1FBB1FA617B70710F0A61B57
:1001D000B70B881F991F5A95A9F780959095BC0178
:0801E000CD010895F894FFCF52
:00000001FF
