S0140000656C656B74726F6B6F7374692E73726563F0
S113000012C03BC016C015C014C013C012C011C02A
S113001010C00FC00EC00DC00CC00BC00AC009C078
S113002008C007C006C011241FBECFEDCDBF56D0F7
S11300306AC0E6CF833091F028F4813049F08230F1
S113004059F00895853081F068F0863091F0089574
S11300508CE382BB8AE40BC084E701C084E382BBE7
S11300608AE005C084E601C084E282BB82E088BBEA
S1130070089584E482BB18BA08951F920F920FB6B4
S11300800F9211242F933F934F935F936F937F931A
S11300908F939F93AF93BF93EF93FF93802F07307A
S11300A011F401E002C08F5F082F802FC3DF8FE7B8
S11300B092E00197F1F700C00000FF91EF91BF912A
S11300C0AF919F918F917F916F915F914F913F91EC
S11300D02F910F900FBE0F901F9018958CE782BB45
S11300E088E781BB8AE488BB87BB03E080E48BBFDD
S11300F0789485B7806585BF85B7806285BF88950C
S10D010085B78F7DF8CFF894FFCF88
S9030000FC
